:1000000000100020352400003124000031240000BD
:10001000312400003124000031240000312400008C
:10002000312400003124000031240000312400007C
:100030003124000031240000FF910000C99300002A
:100040003124000075230100312400003124000018
:10005000BD1C0100E123010081230100992301005F
:10006000792301005D2B00001D2C000031240000CD
:10007000390E00007D0F0000312400003124000003
:100080003124000031240000612C000031240000E4
:10009000312400003124000031240000312400000C
:1000A00031240000312400003124000031240000FC
:1000B000E52301007D23010009010100DD2D000081
:1000C0002524010031240000BD000100312400007E
:1000D00031240000312400003124000031240000CC
:1000E00031240000312400003124000031240000BC
:1000F00031240000312400003124000013B779FAC4
:10010000C925DDB7ADF3CFE0F1B614B801010000A9
:1001100000000000000000002000000001000000BE
:1001200000000000000000000000000000000000CF
:100130000000000000000000000000008801000036
:100140001D00000012000000E40300000200000097
:10015000C4030000070000007801000074010000E3
:10016000010000007001000000000000FFFFFFFF21
:10017000000000000918000003000600080013003A
:1001800017001A001D00000000000108FFFF00001A
:10019000E402000002000108FFFF0000E802000086
:1001A0000F000008FFFF0001F00200000C0007082C
:1001B000FFFF00030200000002000108FFFF000033
:1001C000F802000010000108FFFF0001000300001A
:1001D00002000108FFFF00000803000011000308EF
:1001E000FFFF00011003000000000108FFFF0000F6
:1001F0001803000002000108FFFF00001C030000BC
:1002000004000108FFFF00002403000002000108B1
:10021000FFFF00003003000005000108FFFF0000A1
:100220003803000000000108FFFF00003C0300004D
:1002300002000108FFFF0000400300000700010862
:10024000FFFF00004803000000000108FFFF00005E
:100250005803000002000108FFFF00005C030000DB
:1002600009000008FFFF0001640300000C000708FC
:10027000FFFF00030203010000000108FFFF000070
:100280006C03000002000108FFFF00008003000073
:1002900001800208FFFF000798030000000001082A
:1002A000FFFF0000A003000002000108FFFF0000A4
:1002B000A40300000B000008FFFF0007AC030000D0
:1002C0000C000308FFFF0003030502000200010801
:1002D000FFFF0000B40300000D000608FFFF000749
:1002E000BC030000020001180500200300052A00DD
:1002F000200004005C43002005000206002A2B00B9
:10030000020110006043002005000A0800292B00AC
:100310000A02010070430020020000180500020BD1
:1003200000002A000800692D627377696669000081
:100330000500020D00012A000200000302000A1855
:100340000500021000292A000C0053696C69636FD4
:100350006E204C6162730000020009180500201332
:10036000001C2A0020030500544300201000F0194F
:1003700021B4478FA4BFA14F63FDEED6141D00002A
:100380001300081700636032E0375EA488534E6D97
:10039000FB6435BFF7000000080400000000000007
:1003A00002007BFD0500301A0001FF00300500004F
:1003B0000000000005000C1D0002FF000C060000FC
:1003C00000000000F01921B4478FA4BFA14F63FDC6
:1003D000EED6141D636032E0375EA488534E6DFB89
:1003E0006435BFF70028012803280018002A012AD5
:1003F0000A18292A09181C2A7BFD01FF022902FF7D
:100400000118052A2A2B292B10B5054C237833B95E
:10041000044B13B10448AFF300800123237010BDD7
:10042000001500200000000000F5020008B5034B95
:100430001BB103490348AFF3008008BD0000000072
:100440000415002000F50200154B002B08BF134BCC
:100450009D46A3F5803A00218B460F461348144A67
:10046000121A28F06EFF0F4B002B00D098470E4B4E
:10047000002B00D098470020002104000D000D48FB
:10048000002802D00C48AFF3008028F0F3FE2000D3
:10049000290001F079FE28F0D9FE00BF0000080015
:1004A00000100020000000000000000000150020E7
:1004B000909E002000000000000000002DE9F04F99
:1004C000524CDFF86891DFF86881514F8BB00026FD
:1004D00004AB0093052103AB00224E4807F014FC47
:1004E0004D4BD9F800101868D8F800504FF0000AAA
:1004F00000F1FF3CBC44D646D346D4F80424D4F8DB
:1005000000349A4224D0D4F80424D4F80434A25CF1
:100510000133C4F80434D4F80434B3F5806F01D344
:10052000C4F80464C02A21D00129E6D1013003288F
:100530000CF8012F23D003D9013D2FD04FF0010A31
:10054000D4F80424D4F8003401219A428E46DAD13A
:10055000BBF1000F57D1BEF1000F01D02E4B186038
:10056000BAF1000FB4D0C8F80050B1E70029DBD1D0
:10057000013003284FF0010B0CF8012FDBD17B7801
:10058000BD7805EB03250135B5F5C87FD6DD224BD7
:10059000C8F800601E60C9F8006099E71F4BC8F8F2
:1005A000005018681C4BC9F800501D6000F0EAFBB1
:1005B00000288DD07B7897F802A006681449F06077
:1005C0000AEB032A0AF1040A154B524606F12000F1
:1005D0001E6028F092FE03AA134604AAC6F8B8A12A
:1005E000B561B660294600920E482A4606F0E2FD43
:1005F0000B4B0D49186800F009FC04AA294609486C
:1006000006F032FF63E7C9F80010A4E724220020B7
:10061000FC7500202C260020642A00206C2A002073
:100620001C220020E892002060920020602A002016
:100630003C26002000B50C4E8BB004AD03AC00226C
:10064000CDE9004511460DF10A03304607F012F9D5
:10065000BDF80A00012803D002284FF00000EED1B7
:1006600001F00CF9EBE700BF687500202DE9F04FB1
:100670003E4EDFF818A1DFF818B18DB006F581689D
:1006800006AF08E0D6F80034C6F804343A46002134
:10069000404606F0E9FE05AB0022052100973448EC
:1006A00007F032FB002205AB00971146404606F0EA
:1006B00081FD9AF80030002BE4D0D6F80444D6F837
:1006C0000054AC42E2D02B4BBBF8002093F800C0A2
:1006D000294B88BF05F580652D1B9542D3F8009006
:1006E000264B28BF154615F0FF051B681DD0244A70
:1006F000681E511C51FA80F0315D02F8011B611C2B
:10070000B1F5806F2CBFA4F2FF340C469042F3D1B8
:10071000FC2D0AD96FF07501012219715A719B885D
:10072000002BB3D1C6F80444B0E703931A224FF06C
:10073000000389F804C089F8063089F8075089F861
:1007400005200F492A4609F1080028F0D6FD043596
:100750000C4B0D4928024A4603EB152580B228446C
:1007600042F8040B09F012F9039BD8E74026002059
:10077000EC75002000100020F86C0020FC6C0020BC
:100780001C21002020000A05053C02002022002038
:100790000210002010B50E4812F0CEF900B1FEE7AD
:1007A000044624F075F824F0A9F824F07AF824F02F
:1007B000AEF824F07FF824F086F824F057F824F0FF
:1007C0008BF824F05CF824F090F8204610BD00BFB0
:1007D000A497020070B503686E4A23F47F4323F0A8
:1007E000070393428EB0044600F09B800CD96A4AFE
:1007F000934218D002F5770293426DD0A2F57902A8
:10080000934233D00EB070BD02F17F42934240D08C
:1008100002F580329342F5D1B0F805305F4A033BD0
:1008200013800EB070BDB0F805301D2BEAD1857A6B
:10083000B5B10A345A4B25440026D3F80014D3F836
:10084000002414F8010F58540132C3F80024D3F8DF
:100850000024B2F5806F28BFC3F80064AC42ECD12D
:1008600008AA00214F4807F071FBCBE7B0F805302C
:1008700002798689B0F80950B4F80710C07ACDE93A
:100880000256CDE900104849002009F08BFB0EB05C
:1008900070BD4649464D002009F084FB012100232C
:1008A00008AA0092434829700A46194607F028F919
:1008B000414B247B414D93E8070005AB83E80700DB
:1008C00020460ECB2C7008F00BFE00289AD03C4935
:1008D000002009F067FB95E743685B0092D5394932
:1008E000002009F05FFB384A384B12681C68384911
:1008F0003848002504231571537102252023957172
:1009000013701425032353709370D570043209F0CB
:100910003DF8A388002B38D12F49002009F042FB75
:1009200070E782882D49002009F03CFB204B2148CC
:10093000002408AA1C70214623460092022207F0D8
:10094000DFF8214B21491A680D681C4B14710421F2
:1009500051710220FF21197090710323202014216E
:100960001070D1705370937019491A48043209F00D
:100970000DF8AB88002BCFD02046194909F012FBA7
:100980004FF0804012F0CAF83CE74FF0804012F080
:10099000C5F837E7A0000801A0000A0202100020F5
:1009A000242200202C260020F49502004C95020001
:1009B00020220020687500204095020000100020D1
:1009C0006895020060960200F86C0020FC6C002024
:1009D000C53B020020030314D49502009095020049
:1009E000B895020080B50C4D0C4F88B002AC0026C3
:1009F0004FF4847300221021CDE90064284605F0ED
:100A000089FF3868FFF7E6FE2346002220212846AA
:100A100006F0A4F9ECE700BF1097002038970020FB
:100A200070B5134690B00E4619788DF80D10997870
:100A30008DF8130002468DF80F10587859791D79FA
:100A40008DF80E000024D8788DF81210254B264919
:100A50008DF810008DF811500093244D0191012361
:100A600023498DF80C302046CDE905440295CDF898
:100A70001B4009F097FA21461F2208A88DF8144060
:100A800028F05FFC304628F02BFD1C28054619D8BD
:100A900040F60222023009233146ADF820208DF8BD
:100AA00023006A1C0DF125008DF8243028F025FC68
:100AB000AB1DDBB208AA1521684608F061FD48B9F4
:100AC00010B070BD02460B49204609F06BFA4FF09A
:100AD000FF30F5E72046084909F064FA4FF0FF308F
:100AE000EEE700BF02010603027BFD0DFF70080365
:100AF0007896020098960200B896020010B582B06F
:100B000002A84FF02013002440F8083DADF804403F
:100B100008F086FD20B102460249204609F042FA5B
:100B200002B010BDD89602000844904228BF801A37
:100B3000704700BFF0B591B00AAC23460022384997
:100B4000384807F089F822463749384806F0DCFA79
:100B5000234600223649374807F07EF8234608220C
:100B60003549364806F018FE354A0421032008F0BE
:100B700099FE344908940023052203274FF4807618
:100B80001925CDE90021CDE90637CDE90433CDE9BA
:100B900002562D4A2D492E4807F09CFA9DF8283020
:100BA00003B1FEE72B4908940922CDE90021CDE9E4
:100BB0000637CDE90433CDE90256274A27492848AC
:100BC00007F088FA9DF8283003B1FEE7254908941C
:100BD0000822CDE90021CDE90637CDE90433CDE97E
:100BE0000256214A2149224807F074FA9DF828301C
:100BF00003B1FEE71F4908940722CDE90021CDE9A2
:100C00000637CDE90433CDE902561B4A1B491C487F
:100C100007F060FA9DF8283003B1FEE711B0F0BD8F
:100C200004970200EC7500201C970200482A00205F
:100C3000309702002C26002044970200687500209F
:100C40009507000094770020E50900005497020002
:100C50001C9100201C1D00206D06000070970200F2
:100C6000449000201C150020BD0400008097020065
:100C7000807500201C1900203506000094970200A2
:100C8000B09000202DE9F04F804689B02820CDE9B2
:100C9000001228F013FB002849D000F10409074690
:100CA000484600F0AFF802AA354907F1100006F0F7
:100CB0002BFA0821404628F0C1FA0546386098B35F
:100CC000B8F1000F38D000240EE028F0F7FA4946BA
:100CD000CAF804000346A8B30134C0F808A000F025
:100CE00095F8A04528D03D68009828F0E7FAE6007E
:100CF000834645F834B00C2005EB060ABBF1000F23
:100D0000E3D104F1FF381CB90BE03B6853F806B09F
:100D1000584608F1FF3828F0D9FAB8F1FF3FF4D16E
:100D20003D68284628F0D2FA384628F0CFFA4FF02E
:100D3000FF3009B0BDE8F08F019B00201F6009B0B3
:100D4000BDE8F08F013C621CA04603D113E03B6874
:100D500033445B68184608F1FF3828F0B7FAB8F159
:100D6000FF3FF4D100E0013C3B68985928F0AEFA0F
:100D7000631CF8D1D4E7584628F0A8FAD1E700BFA1
:100D8000E8970200F0B58BB0002200F1100504AE28
:100D9000044600962846114603AB06F00BFA201DC8
:100DA00000F042F868B96368074618469C6800F08E
:100DB00033F832463946284606F056FB20460BB03B
:100DC000F0BD32462846002106F04EFB0024F5E730
:100DD000F0B58BB002F1100416460F46002204ADA8
:100DE000114603AB2046009506F0E4F9311D786802
:100DF00000F00CF82A462046002106F035FB0BB027
:100E0000F0BD00BFC0E90000806070474B684860DB
:100E1000C0E9001318607047D0E9001200234A604F
:100E20001160C0E9003370470368181AB0FA80F007
:100E30004009704708F0B0BEF0B51B4C2068036C49
:100E40001B0487B001D407B0F0BDC26E174D184E19
:100E5000184B22F4E022C266C26E4FF4004742F4FF
:100E60008022C266294687643246204602F032FC60
:100E700028680028E7D031680029E4D089B200F062
:100E80007FF90221204602F081FB204600234FF427
:100E90008062094903F0F8F9084B6A46186000219E
:100EA000074807F053F8CEE7702A0020682A002090
:100EB000A42A0020A82A0020B02A0020AC2A002062
:100EC000B842002000B587B06A460021024807F00A
:100ED0003DF807B05DF804FBD892002070B51D4DB9
:100EE0001D4E0FCD8AB001AC0FC40FCD0FC42B68BF
:100EF000236001A9304602F001FD1849184C0C206E
:100F000003F0BEFF174B184818494FF48052C3F83E
:100F100080211A603368DC669864DA6C42F400421F
:100F2000DA6430464FF48062002303F0ADF9104AD2
:100F30004FF4DE710620FFF7A5FE08B90AB070BDB8
:100F40007B230C4A0C49002009F02CF84FF0FF30AD
:100F5000F4E700BFFC970200702A0020390E000061
:100F60003000240100E100E0FFFF0100B02A002072
:100F70006C2A00202098020030980200044B1B6865
:100F80001A6C920444BF4FF400529A64704700BF39
:100F9000702A00200A46024B0146024803F0ACB911
:100FA000C50E0000702A00202DE9F043DFF86090A4
:100FB000DFF86080154F8BB004AE03AD0022114600
:100FC0000DF10A03CDE90056404606F053FC0446F5
:100FD0002030D4F8B811FFF7DDFF00222B46009631
:100FE0001146384606F090FEE369002BE6D0A3696F
:100FF0001846002BE2D123616361A361E361E168DC
:10100000D9F80020FFF7E4FED8E700BFD89200200F
:101010006C2A00200093002000B5084D8BB004AC72
:1010200003AB002205210094284606F06DFE00F077
:10103000A5FB0028F4D000F045FEF1E7B8420020FF
:101040002DE9F04F494D4A4EDFF828B1DFF82881ED
:10105000DFF828A18DB006AF4FF000090022102361
:1010600011461046CDE90037052307F0EDFE0022BA
:101070000097114605AB404606F09CF82C68AC4240
:1010800009D0A1683160886900284DD0012808D0B6
:101090002468AC42F5D13A460021404606F0E4F916
:1010A000DCE74A69002A52D0CB69BBB90869053030
:1010B000B0F5FA7F01D20861EAE70132032AC1E9FB
:1010C00004321FD8B1F8B8210097504606F018FD39
:1010D0003A460021404606F0C7F9BFE72468606839
:1010E000FFF79AFE3368DBF80020C3F81090002069
:1010F000C3F81490C3F81890C3F81C90D968FFF790
:1011000067FEBCE7246803936068FFF785FE3168DB
:10111000039B0B614B618B61CB61DBF80020C968DD
:101120001846FFF755FEAAE70123B1F8B821CB61B5
:1011300050460097002306F0E3FC23685868FFF749
:101140006BFE3A460021404606F08EF986E7B1F87C
:10115000B8414861134650462246009706F0D0FC3D
:101160003A460021404606F07FF977E7609200207A
:10117000C84200206C2A0020E89200200093002042
:10118000C1B10D4B70B401440026D3F80044D3F82C
:10119000002410F8015B1D550132C3F80024D3F878
:1011A0000024B2F5806F28BFC3F800648842ECD1F8
:1011B00070BC7047704700BFB03E0020F0B591B0E2
:1011C000FFF78CFE002833D10AAC3248FFF71AFE35
:1011D00022463149314805F097FF23460022304925
:1011E000304806F039FD234600222F492F4806F0EB
:1011F00033FD234607222E492E4806F0CDFA2E490C
:10120000089400230C2203254FF480771926CDE99A
:101210000021CDE90635CDE90433CDE90267274A3F
:101220002749284806F056FF9DF828302BB1FEE7E5
:101230002549002008F0B6FEC6E7244908940A2292
:10124000CDE90021CDE90635CDE90433CDE90267CA
:101250001F4A2049204806F03DFF9DF8283003B181
:10126000FEE71E49089433200B224FF40076CDE9A7
:101270000021CDE90635CDE90433CDE90206184A4F
:101280001849194806F026FF9DF8283003B1FEE7FB
:1012900011B0F0BD609200205C980200E89200203E
:1012A0006C980200B842002080980200D89200207A
:1012B0009C98020000930020B03A0020A90F000083
:1012C000B09802008891002044980200B0360020B7
:1012D00041100000C4980200F4910020B02E0020BC
:1012E00019100000809702006C9200202DE9F04355
:1012F000384B8BB081461868FFF744FD002865D055
:101300000468354AE060C02384F82030D9F80470BE
:10131000137884F824303D1D290A84F82110002117
:1013200084F8225084F8231099F8081084F82510C6
:10133000DFF8B08099F8001084F826100133ADB2C0
:101340001370C8F8004004F123069FBBBC4600237D
:1013500031461A461E4601E011F8016F013398B27A
:10136000A8423244F8D3D5B204EB0C02002682F82E
:101370002750A66126616661E66199F88930A3610C
:1013800004AD0837324603ABC4F8B871A4603146E7
:101390001248009505F00EFFD8F800001049FFF73D
:1013A00035FD0E482A46314606F05EF830460BB051
:1013B000BDE8F0833A4609F1090104F1270027F05E
:1013C0009CFFD9F804C0002DC1D1CDE74FF0FF300C
:1013D000EDE700BF6C2A002050430020E892002077
:1013E00060920020D84200202DE9F04155498CB090
:1013F0000546002008F0D6FD534B1868FFF7C2FCE5
:10140000002800F09C800368504FD8600024C02161
:1014100083F8201083F8234029793A8883F8241030
:101420006D7983F82550D01C80B2132583F826509F
:1014300003F1200E9D1800F1070CD11D06327144F6
:10144000F44418443A80012285F827204FF003081D
:101450003F4D404E4C708C7080F827208CF8012056
:101460008CF8028004A8C5F800E0336008F072F937
:101470002D683B889DF8151037489DF811E090F8CD
:1014800000C0EA18D1715A1C15FA82F29DF81410A6
:10149000D1719A1C15FA82F29DF81310D17103EBE9
:1014A0000802191D15FA82F215FA81F19DF8120051
:1014B000D07181F807E003F10B02581D991D92B21B
:1014C00015FA81F115FA80F04FEA122E3A809DF854
:1014D0001070C77181F807C0171F85F801E0AA7066
:1014E00005EB080152B10A3311FA83F32246A91C15
:1014F00011F8010F99420244FAD1D2B23368174869
:10150000E9190024CA711C615C61DC619C619B600B
:101510006978AA7802EB0122043206ADC3F8B8213B
:101520002146224603AB009505F044FE30680C4985
:10153000FFF76CFC2A462146084805F095FF0CB0E1
:10154000BDE8F081009902006C2A0020D042002002
:10155000CC4200204C43002020220020E8920020B2
:10156000609200202DE9F041384D39498AB0064695
:10157000002008F017FDAB681B78012B62D0354BBB
:101580001868FFF7FFFB002859D00468324AE06072
:10159000C023002184F8203084F82310337984F8A4
:1015A0002430737984F82530112384F82630AB6811
:1015B00010881F78DFF8B0E0284D2618431D9BB235
:1015C00086F827704FEA132CDEB204F1200813804E
:1015D00084F821C084F822601F1FCEF800802C60A0
:1015E00004F1230253B1043012FA80F00B4601E0FB
:1015F00012F8011F90420B44FAD1DBB206EB0C2625
:101600002744301D0DF11008002687F82730324698
:10161000C4F8B80126616661E6613146A661A4603E
:1016200003AB0F48CDF8008005F0C4FD28680D49D4
:10163000FFF7ECFB42463146094805F015FF0AB0BA
:10164000BDE8F081FFF75AFA99E700BFDC420020BD
:10165000D89802006C2A0020D04200204C43002081
:10166000E892002060920020CC4200202DE9F04159
:101670003A4E3B498AB00746002008F093FCD6E971
:10168000023231691878FFF7CBF910B10AB0BDE822
:10169000F081344B04461868FFF774FB0028F5D03E
:1016A0000568314AE860C02385F8234085F820307A
:1016B0003B7985F824307B7985F82530122385F82D
:1016C0002630B368118893F800C02848284E6F1858
:1016D0004B1D9BB287F827C04FEA132EDFB205F1EE
:1016E0002008138085F821E085F82270A3F1040C0E
:1016F000C0F80080356005F123025BB1043120465B
:1017000012FA81F1234601E012F8010F91420344DD
:10171000FAD1DBB2AC4407EB0E2700240DF1100820
:1017200004378CF82730224603AB2C616C61EC61E6
:101730002146C5F8B871AC61AD600E48CDF80080A7
:1017400005F038FD30680C49FFF760FB4246214642
:10175000084805F089FE0AB0BDE8F081DC420020AF
:10176000649902006C2A0020D0420020CC42002064
:101770004C430020E8920020609200203A4B2DE973
:10178000F04F1D68DFF8E8B0DFF8E8A0DFF8E8E028
:10179000DBF80000DAF80040344B00276E1E764478
:1017A000B846B946BC46D3F80414D3F80024914295
:1017B00024D0D3F80414D3F80424595C0132C3F8BC
:1017C0000424D3F80424B2F5806F01D3C3F804C411
:1017D000D02921D00128E6D10135032D06F8011FBB
:1017E00023D003D9013C33D04FF00108D3F80414BF
:1017F000D3F80024012091420746DAD1B9F1000F55
:101800002FD1B8F1000F01D0CAF800400FB1164B2C
:101810001D600020BDE8F08F0028DBD10135032DCD
:101820004FF0010906F8011FDBD19EF801209EF858
:10183000024004EB02240134B4F5C87FD4DD0A4B26
:1018400000201860CAF80000CBF80000BDE8F08F57
:10185000054BCAF800401C60CBF800400120BDE8F1
:10186000F08FCBF80000CCE748430020B03E0020CA
:1018700044430020D44200201C93002010B5A4B0A3
:1018800010218DF80D00FF220023012401A80294ED
:101890008DF804108DF80C208DF88D30FFF726FDA3
:1018A00024B010BD70B5A4B0030E0424060C050AC4
:1018B000D2218DF81000F0228DF80D300DEB0400D0
:1018C00001238DF80E608DF80F5002948DF80410EE
:1018D0008DF80C208DF88D30FFF708FD24B070BD19
:1018E0002DE9F0414378857805EB0325ADB2AB1FB8
:1018F00010FA83F30A3DD9791E7AADB206EB0126C0
:10190000A6B000F10B02B6B2002D00F08E800A30B6
:10191000DFF858C14719002410F8011FE3B25940FD
:10192000B8423CF8113083EA1424F5D1424B434FBE
:101930009B68D3F80080A64298FA88F802D17B68A9
:1019400098455ED03E49002008F02CFB23463246E5
:101950003C49002008F026FB42463B497B680020BA
:1019600008F020FB2A463949002008F01BFBD7E984
:1019700001239A423BD33649002008F013FB002193
:10198000084600F0A3FE0446A8B13249002008F042
:1019900009FBD32401214FF4F872002303A88DF82A
:1019A0000C400491ADF814208DF89530FFF79EFCA3
:1019B00026B0BDE8F081284908F0F4FA204600F08E
:1019C00063FE0122AA23104624493B7407F05AFD06
:1019D00003AA1023CDE900322146234601222046E6
:1019E00007F032FA00F0FAFD26B0BDE8F0811C499C
:1019F000002008F0D7FA7868FFF754FF26B0BDE85A
:101A0000F081FB689D429DD841462B46002000F0A6
:101A100007FE60B97B687A6912492B447B6008F045
:101A2000C1FA7B6901337B61A1E72C467EE70E4951
:101A3000002008F0B7FA9AE7DC420020B4940020B6
:101A4000089A0200289A0200489A02006C9A020042
:101A50009C9A0200E89A0200C49A0200C4940020F2
:101A6000849A0200D8990200EC990200C89B0200F7
:101A70002DE9F043694B6A4CDB686A491B681BBA65
:101A80001A468BB080460020A36008F08BFAA3684A
:101A9000B3F56C3F08D9002318466349A36008F0EA
:101AA00081FA0BB0BDE8F08300F088FD07460028FE
:101AB00040F0A58004AE4FF0100902460A2301460B
:101AC000CDE9009607F0C0F95849384608F06AFA9F
:101AD000384600F0C1FD0546002840F097800246D8
:101AE00064230146CDE9009607F0AEF95049284637
:101AF00008F058FA4F4B257418686560012280235E
:101B000065612260E360FFF73DF90028C9D00768EE
:101B1000DFF838E1F860C02387F8235087F82030D9
:101B200098F80430BEF8001087F8243098F8058043
:101B3000E26887F825804C1C4FF0D10807EB0109BB
:101B400087F8268017FA84F44FEA1268881C01F19E
:101B5000030C01F1080389F827809BB24FEA124871
:101B600017FA80F017FA8CFC84F82780AEF8003062
:101B7000DFF8DC80304C4FEA122E80F827E08CF83A
:101B800027204FEA132E07F12002D8B2C8F8002010
:101B900087F821E087F82200A3F1040C276007F101
:101BA000230253B1073112FA81F12B4601E012F8FA
:101BB000015F8A422B44FAD1DBB2BC4400EB0E2019
:101BC000002504308CF827302A46C7F8B80103AB4B
:101BD0003D617D61FD612946BD61BF60174800968A
:101BE00005F0E8FA20681649FFF710F93246294651
:101BF000124805F039FC2846FFF754FE51E7114919
:101C0000002008F0CFF90BB0BDE8F08338460E494C
:101C100008F0C8F90BB0BDE8F08300BFDC4200203B
:101C2000B49400200C9B0200249B02003C9B020009
:101C3000749B02006C2A00204C430020E892002094
:101C400060920020589B02009C9B0200D042002022
:101C5000CC42002010B5A4B0D3218DF80D00F022A5
:101C60000023012401A802948DF804108DF80C20A3
:101C70008DF88D30FFF73AFB24B010BD38B54378AE
:101C8000817801EB032189B2032917D9C31C4D1EAA
:101C900013FA85F5821C002312F8014F9542234464
:101CA000FAD10844DBB2C2789A4205D00449002038
:101CB00008F078F9002038BD012038BD002038BD7B
:101CC0002C9902002DE9F041504B514D8AB0184635
:101CD0002B60FFF7D3FF48B128684379FF2B08D06A
:101CE000F02B06D04B4B1B78012B42D00AB0BDE83D
:101CF000F081817913296AD0474B484C00E0236971
:101D00000C34002BEED022788A42F8D14449454F5A
:101D1000A66800220A803A7126B1327800F1070CD9
:101D2000002A5DD198476278002ADFD104AF03AB67
:101D30003D480097114605F03DFA3C480368834250
:101D400011D02E68347902E01B6883420BD09A6868
:101D500092F82410A142F7D1B57992F826108D425D
:101D6000F2D10123D3613A4600212F4805F07CFBD4
:101D7000BCE7437890F802802D4E002204AF08EBB8
:101D8000032806F5816003AB0097114605F012FAAF
:101D9000D6F8003408F1040800242A68125DF254D1
:101DA000184601214FF480620C44FEF7BDFEA045A9
:101DB0000346C6F80004F0D83A4600211D4805F055
:101DC00053FB3A4600211C4806F0C0F88EE7144A3F
:101DD000124C1A4E1A4B134F0021118000F1070CC0
:101DE0000122C7F808C03A710BE0397916F801EB07
:101DF0004A1CD2B20231F444172A47F821C03A7182
:101E000090D87278002AF0D18CE700BF1C93002094
:101E100018930020202200206515000090990200F0
:101E2000D0420020DC420020E89200206092002096
:101E300040260020482A0020EC7500202899020046
:101E4000E913000010B500F0DFF900231846042262
:101E5000052103F031FD002304220F210320BDE8FA
:101E6000104003F029BD00BF08B501210B4802F066
:101E7000EBFA01210A4802F0E7FA0121094802F0D1
:101E8000E3FA0121084802F0DFFA00F025FA00F039
:101E90009FFABDE8084000F071BA00BF00A204003C
:101EA00000450A000032040000350A004F4B30B5EF
:101EB00001225A641A688DB042F480721A6007A831
:101EC00003F08EFE9DF81D30012B40F288804848BB
:101ED000484A4949494B4A4C4FF41875056014600B
:101EE0004848494A08601A60484C94E80F0003AD1E
:101EF00085E80F001034284603F0F2FB0FCC07AD45
:101F00000FC5434B22685B682A801B0362D5414B97
:101F10001B884FF6FF72934208BF40F24F13ADF893
:101F2000223007A802F012FF3B4800F0DDFA3A48E1
:101F300000F0DAFA01221146022002F07BFC0421B3
:101F4000112002F02FFD00221146032002F072FC46
:101F50000121324802F078FA01221146104602F0BF
:101F600069FC03212E4802F01DFD03212D4802F0DB
:101F700019FD03212C4802F015FD2C4B93E80700B6
:101F800007AB03C30024012107A81A708DF81C10A9
:101F90008DF81D408DF81E408DF81F408DF82040B3
:101FA0008DF8224003F0EAFD0CA800F82C4D03F058
:101FB000FBF9022302A88DF809308DF8084003F0E0
:101FC000FDF91B4A136823F4E06343F400731360C4
:101FD0000DB030BD174B1B88ADF82230A1E79DF83E
:101FE0001C30022B3FF673AF7EE700BF00000E40AF
:101FF0008C420E4090420E40F0420E40F8420E409D
:102000009A6F05001801000400843208C89D020080
:10201000B081E00F0001E00F00F0490200250A0046
:1020200002001E000300200005002400EC9D0200B9
:1020300000500E40B881E00F10F034BA2DE9F04F97
:1020400089B003F037FF02F0BFFE0446022000F023
:10205000ADFF434B434A1A60204602F0B9FE03F03D
:102060001FFFFEF7E7FEFEF765FDFFF7A7F8012368
:10207000032200923C491A46002007F093FF0122F8
:102080003A49104607F0C8F939490B7CAA2B58D0B9
:102090004FF0000ADFF8E490DFF8E4B0DFF8E48006
:1020A00056465446142502AF2AE000F0FBF80135ED
:1020B000012000F0DDF8282D4FF0000637DC5FFA34
:1020C00085FCD9F800202B4982F809C0FF20132392
:1020D000107153710A2005234FF0200E4FF0090CA8
:1020E0009070947114729472D472147382F800E038
:1020F00082F801C0D371D3704046043207F046FC29
:1021000000231022CDE9002718461946012206F0C7
:102110009BFE0020002EC8D1012000F0C3F801353D
:10212000304600F0A5F8282D4FF00106C7DD0AF172
:10213000010A002014255246594607F033FFAC46E9
:10214000BFE70024012201F8104F104607F09AF96A
:102150002046FFF77FFD2046074907F023FF97E75A
:10216000F094002039200000F89D0200C494002063
:10217000B4940020053C0200189E0200F86C002078
:10218000389E020020090A0530B591B0FFF78EFE97
:102190000AACFFF769FEFFF755FE0121154802F072
:1021A00053F9204604F09EF89DF8283003B1FEE76D
:1021B000032211490792192006224FF48075CDE9B8
:1021C0000021CDE905330493CDE9020508940B4ABB
:1021D0000B490C4805F07EFF9DF8283003B1FEE75F
:1021E000204603F0E9FF9DF8283003B1FEE7012007
:1021F00011B030BD00450A00744300203D200000AE
:10220000A09E02007447002030B50A4D0FCD87B064
:1022100001AC0FC42B68236001A94FF0FF300AF016
:10222000A5FB20B901214FF0FF300AF0A2FB07B057
:1022300030BD00BFB09E020008B501210A4802F07F
:1022400003F90121094802F0FFF8002304220E21BE
:10225000032003F031FB002304220F21032003F0AD
:102260002BFB002008BD00BF4041050000350A00DF
:1022700001280FD8094A0A4912F8303002EBC0028F
:1022800003EB43031B0152681944012393400B6085
:10229000002070474FF0FF30704700BFC49E02001F
:1022A0000CA0004401280FD8094A0A4912F830301E
:1022B00002EBC00203EB43031B01526819440123E4
:1022C00093400B60002070474FF0FF30704700BF15
:1022D000C49E02000CA0004670B5224D224E0FCDC8
:1022E00088B002AC0FC495E8030084E80300012124
:1022F0001E4802F0A9F801211D4802F0A5F80124AA
:102300001C4B0493304602A98DF8164003F01CFDC7
:10231000234604220621022003F0CEFA224600239F
:102320000721022003F0C8FA2346042208210220D4
:1023300003F0C2FA042223461146002003F0BCFA3F
:102340000D4BB3670B2249F23D6372670193019B0A
:10235000002B05DD019B013B0193019B002BF9DC68
:1023600008B070BDD49E02000004014000350A0090
:102370000042040040420F000B0B000B002310B57D
:102380001A460621022003F097FA00231A46072175
:10239000022003F091FA012300220821022003F019
:1023A0008BFA094C002210460123042103F084FA21
:1023B000204603F039FD0023A367194663670348ED
:1023C000BDE8104002F040B80004014000420400A3
:1023D00038B5144B144D10221A601424FF212846DE
:1023E00003F04EFD013CF9D1104B0F4D10221A6045
:1023F0001E24FF21284603F043FD013CF9D10524AA
:10240000FF21094803F03CFD013CF9D1054B06488A
:1024100010251D60B92103F033FD044B20461D60DB
:1024200038BD00BF0CA00044000401400CA00046D1
:10243000FEE700BF08B500F075F8064B064883427A
:1024400006D2064A52F8041B43F8041B9842F9D8F6
:10245000FDF7FAFF00100020D81400200CF5020050
:102460000048704700F049020F4BD3F8943003F056
:102470000703032B14D0042B0FD0022B0AD00B4BD5
:102480001868094BD3F80031C3F304230133B0FBC0
:10249000F3F07047064B1868F3E7064B1868F0E74F
:1024A0004FF40040EDE700BF00400E400C1100204B
:1024B000081100201011002008B5FFF7D5FF054BCB
:1024C000054AD3F80831C3F308230133B0FBF3F016
:1024D000106008BD00400E4004110020014B186838
:1024E000704700BF0811002008B50B4B0B4A18605D
:1024F000D2F8943003F00703022B00D008BDFFF799
:10250000B3FFD2F80831064AC3F308230133B0FB06
:10251000F3F0106008BD00BF0811002000400E401D
:1025200004110020044B054A9A60D3F8882042F435
:102530007002C3F88820704700ED00E00000000042
:102540004FF40040704700BF4FF47A70704700BFEF
:10255000014B1868704700BF10110020134B1A6818
:1025600002F1704303F5F813B3F5006F0CD2104B72
:102570001968A1F17E63A3F58433B3F5605F03D2DC
:1025800012680C4B9A4203D000230370836070479B
:10259000094B0A689A42F7D18A688B6910B4012402
:1025A0000470C0E901235DF8044B70472800E10F77
:1025B0002808E10FAD1007B007B0CD5E064B1A68D2
:1025C000A2F17E63A3F58433B3F5605F01D2D369D2
:1025D00018474FF4817070472808E10F0C4A0D48E6
:1025E0000123936013684FF0005123F4E06343F438
:1025F000806313600860BFF34F8F0749074BCA68B9
:1026000002F4E0621343CB60BFF34F8F00BFFDE7DE
:1026100000500E4002020FF000ED00E00400FA0549
:1026200030B40C4C2568A5F17E64A4F58434B4F56F
:10263000605F0BD22D6BA5F17E64A4F58434B4F5F4
:10264000605F03D22C69A44630BC60474FF48170B0
:1026500030BC70472808E10F0A4B1A68A2F17E636C
:10266000A3F58433B3F5605F09D2126BA2F17E63E8
:10267000A3F58433B3F5605F01D2536918474FF473
:10268000817070472808E10F00B50F4B1A68A2F15E
:102690007E6383B0A3F58433B3F5605F01900ED2FF
:1026A000126BA2F17E63A3F58433B3F5605F06D2AB
:1026B0009369012101A8984703B05DF804FB4FF42A
:1026C000817003B05DF804FB2808E10FF0B51D4CE4
:1026D0002268A2F17E63A3F58433B3F5605FE1B0B5
:1026E00022D2136B03B30D465B6A69464FF4C07286
:1026F00098470646D0B940F201270BE0126BA2F1D1
:102700007E63A3F58433B3F5605F0DD2936A984777
:10271000B8420ED12268A2F17E63A3F58433B3F5EB
:10272000605F29466846E9D34FF40176304661B0D0
:10273000F0BD40F20323984218BF0646304661B010
:10274000F0BD00BF2808E10F2DE9F04F594C85B0CE
:1027500025789DF844A09DF84CE0002D66D0072A0E
:1027600014465FD80E9A002A5CD00F9A002A59D0DE
:10277000129AB2F5006F55DC012806460F464ED07E
:10278000DFF844914FEA041809EB0802127B002A93
:1027900050D0494A00216501CDE90111039102EBB6
:1027A000050C002F48D157519CF802009CF80310EB
:1027B000CCF8047040F0100041F03001CCE9027711
:1027C0008CF802008CF80310BAF1000F65D000936A
:1027D000129B515B013B63F30E11515315440E994B
:1027E000EB78A9606EF383030F996960012EEB709B
:1027F0003CD0149B002B56D009EB08032046149CB8
:1028000049F80840159D5D600024624669465E7384
:102810009C6003F0D1F8204605B0BDE8F08F109A17
:10282000002AADD1254805B0BDE8F08F244805B099
:10283000BDE8F08F2348F6E751519CF802B09CF8B0
:102840000300CCF804104BF0100B40F00300CCE96F
:1028500002118CF802B08CF80300BAF1000FB6D167
:10286000C1B241F030018CF80310B0E71323EB60E4
:1028700095E80F0005F1100E8EE80F00EA69109B35
:102880006B616FF0030161F39F02012FEA61B3D125
:102890000F9BAB61109B6B60AEE7C9B241F00301C7
:1028A0008CF8031093E7AB78149A62F30413AB70BF
:1028B000A2E700BF6055002060540020018000F0B6
:1028C000028000F0078000F0E053002038B5114B83
:1028D0001B7883B188B1054602F07EFA0E490022CA
:1028E0000B461C7B103354B10132082AF9D102F097
:1028F00077FA0A4838BD0A4838BD0A4838BD13017E
:102900002A60CA180125CC50157302F069FA2046D6
:1029100038BD00BF60550020E0530020048000F067
:10292000028000F0018000F010B5174A82B0002349
:10293000126801928DF8043002F04EFA134B1C78A5
:10294000E4B901221A7002F04BFA114B04220DEB8C
:1029500002001C731C7783F82C4083F83C4083F8FA
:102960004C4083F85C4083F86C4083F87C408DF8E1
:10297000072002F0F5FF204602B010BD02F030FA49
:10298000044802B010BD00BFEC9E0200605500205C
:10299000E0530020038000F0F0B589B09DF8385076
:1029A0000F9C9DF84070119E03950494129D019315
:1029B000002400920B460246CDE905760795029465
:1029C00021462046FFF7C0FE09B0F0BDF0B589B042
:1029D0009DF838500F9C9DF84070119E039504940B
:1029E000129D0193002400920B460246CDE9057624
:1029F0000795029420460121FFF7A6FE09B0F0BD1D
:102A000008B50A4B1A786AB1072809D8084A02EBB8
:102A100000131B7B43B1002102F098FF002008BD8A
:102A2000044808BD044808BD044808BD605500209E
:102A3000E0530020018000F0028000F0078000F0E9
:102A400008B50A4B1A786AB1072809D8084A02EB78
:102A500000131B7B43B1012102F078FF002008BD69
:102A6000044808BD044808BD044808BD605500205E
:102A7000E0530020018000F0028000F0078000F0A9
:102A800008B50A4B1A7862B1072808D8084A02EB41
:102A900000131B7B3BB102F0DFFF002008BD05489F
:102AA00008BD054808BD054808BD00BF60550020A9
:102AB000E0530020018000F0028000F0078000F069
:102AC0000D4B1B78A3B1072810D879B10B4B03EB42
:102AD00000131B7B73B10A4B01221B6A02FA00F040
:102AE00018401ABF00200A700870704705487047E8
:102AF000054870470548704760550020E0530020A6
:102B000000200E40018000F0028000F0078000F0FD
:102B10000D4B1A7892B107280DD861B10B4A02EB20
:102B200000131B7B6BB110B50C4602F0ABFF00230A
:102B30002060184610BD064B18467047054B1846D6
:102B40007047054B1846704760550020E053002041
:102B5000018000F0028000F0078000F02DE9F843CA
:102B60001D4E326EF36E12EA030834D41B4CDFF8AC
:102B700070900127002506E00135082D4FEA470730
:102B800004F1100425D018EA070F2846F4D0236872
:102B9000B766002BF0D0D4E901210131A16098473C
:102BA000637B012BE8D109EB451303F108021833CD
:102BB0000028E1D1117960F3410111711A790135D1
:102BC00060F34102082D1A714FEA470704F110041F
:102BD000D9D1BDE8F883FEE700200E40E053002085
:102BE00060540020054B4FF480214FF48062C3F8FD
:102BF00080111960C3F880211A60704700E100E07D
:102C000038B504460D4602F0E7F8034B43F824506C
:102C1000BDE8384002F0E4B8645500200E4B70B5B2
:102C2000D3F82844D3F81C1445F255520C401440F4
:102C3000C3F824447CB1094E012594FAA4F0B0FAFB
:102C400080F005FA00F256F8203024EA020403B1BD
:102C50009847002CF1D170BD00A0004064550020C1
:102C60000E4B70B5D3F82844D3F81C144AF6AA22A8
:102C70000C401440C3F824447CB1094E012594FA59
:102C8000A4F0B0FA80F005FA00F256F8203024EAF9
:102C9000020403B19847002CF1D170BD00A00040A0
:102CA000645500202DE9F84F2C4C4FF0000A04F138
:102CB000A005064600274FF0010B237F84F81DA0D6
:102CC00073B1D4E900239F4208BF964210461946CB
:102CD0000BD2921B63EB070310461946C4E90001AF
:102CE0002834AC42E9D1BDE8F88FE37F33B92377CC
:102CF000A369002BF4D084F81DB0F1E7D4E9028970
:102D0000301A67EB010142464B4626F017F921695C
:102D10006069B8EB020869EB030942464B4600299B
:102D2000C4E900230CDD01441D296161E0D918F1DB
:102D3000010249F100031E39C4E900236161D7E7AC
:102D4000411A1D296161D3D918F1FF3249F1FF33CE
:102D50001E39C4E900236161CAE700BFB0550020F5
:102D60001A4BF0B403F1A0014FF0FF344FF0FF35E0
:102D70001A7F3AB1D3E90067AF4208BFA6423CBF11
:102D800034463D4628339942F2D1114A002313704C
:102D90006B1C08BFB4F1FF3F16D00E490E4B086004
:102DA00000276FF06406AF424FF0040108BFA6424F
:102DB000196238BF3446084B204458650121117010
:102DC0005A6A42F004025A62F0BC7047B0550020C3
:102DD000AC550020A8550020002004402DE9F84FF4
:102DE000264D01F0F9FF6B6AAA69134023F0050232
:102DF0002A625A07814630D5214FDFF890A03A6801
:102E0000AE68DFF88C8001238AF80030B01A6B6A54
:102E10001C4C23F004036B62FFF744FF4FF0000BE0
:102E2000637F58460BF1010B13B1A369216A9847E0
:102E3000BBF1040F04F12804F2D13046FFF790FFF4
:102E4000AE683A686B6D98F80010B01A9B1A09B119
:102E50009842DCD200238AF80030084A536A91690C
:102E60000B40DB0705D50123074913620B680133CB
:102E70000B604846BDE8F84F01F0B2BF00200440A7
:102E8000A8550020B055002050560020A455002021
:102E9000AC55002008B5034B1B6803B198470120CF
:102EA00008BD00BF5856002038B5124D2B680446A7
:102EB0000BB1984768B1631E032B05D8DFE803F018
:102EC0000A11150202F0F4F96B6820460BB198471D
:102ED000204638BD084A136923F00403136130BF4C
:102EE000F2E7002002F07AF9EEE7002002F0A0F904
:102EF000EAE700BF5C56002000ED00E00B4A0C4BF7
:102F000070B510600B4C0C4D00221A80C4E90051C2
:102F100002F004FEC30300D470BD02F0F9FD636843
:102F2000002BF9D00420BDE8704018475856002007
:102F3000545600205C560020952E00002DE9F041EB
:102F4000184D01F041FF2B78804613B902F0ACF91F
:102F50002B78154F002483B96B78002B14BF022007
:102F60000320FFF7A1FFBB6806460BB19847044654
:102F7000E30704D52B78002BEED00120F1E7B31E38
:102F8000DBB2012B05D9404601F022FF3046BDE8F7
:102F9000F08102F08BF9404601F01AFF3046BDE89F
:102FA000F08100BF545600205C5600200238C3B2A6
:102FB000012B03D8024A135C01331354704700BF3E
:102FC000545600200238C3B2012B00D97047034A7F
:102FD000135C002BFAD0013B135470475456002069
:102FE000054B1A782AB95B78002B0CBF032002200E
:102FF00070470120704700BF5456002038B5044682
:103000000D4601F0E9FEA3889BB253B1638803EB40
:10301000830304EB830408342C6001F0E1FE0020FC
:1030200038BD2B6001F0DCFE004838BD0B7000F0AD
:1030300070B504460E4601F0CFFEA3889BB2BBB12B
:1030400063886288E58803EB830304EB8303013222
:103050000833336092FBF5F305FB13239BB26380C7
:10306000A388013B9BB2A38001F0BAFE002070BD93
:10307000336001F0B5FE014870BD00BF0B7000F079
:1030800030B504460D4683B0C07DE17EE5B1012335
:10309000042202F011FC01230222217F207E02F093
:1030A0000BFC94F83130022B36D0032B1CD1617FFE
:1030B000607E0023012202F0FFFB00230422A17F97
:1030C000A07E02F0F9FB0FE02B462A4602F0F4FB4B
:1030D0002B462A46217F207E02F0EEFB94F8313009
:1030E000022B04D0032B2CD0002003B030BD2B4684
:1030F0002A46617F607E02F0DFFB2B462A46A17FD5
:10310000A07E02F0D9FB627F607E0195012311460B
:10311000009302F07DFBE7E7617F607E00230122E0
:1031200002F0CAFBA17FA07E0023042202F0C4FBB0
:10313000627F607E01231146CDE9003302F068FB17
:10314000D2E72B462A46617F607E02F0B5FB2B4614
:103150002A46A17FA07E02F0AFFBC5E790F832308F
:10316000012280F82C202BB1012B03D0002380F802
:103170002C30704703680A6830B50D4687B00446A6
:1031800001696D6880680494054C019503940025DD
:1031900001241C3302950094FFF718FC07B030BDE2
:1031A0001138000090F83230012280F82D20ABB9A0
:1031B0000268343230B50D4687B004460B686D683E
:1031C000C168406804940A4C0195039400250124C9
:1031D00002950094FFF7E0FB07B030BD012B03D050
:1031E000002380F82D30704702682832E2E700BFE4
:1031F000F5310000F0B583B0906A01A91446FFF7DD
:10320000FDFE154B98421BD0019B00251D619D6062
:1032100001F0E2FD019AD668074626B12946D2E9B7
:1032200000232046B04701A9A06AFFF701FFA06A6A
:1032300083889BB23BB984F82D30384601F0D0FD2D
:10324000012003B0F0BD01A9FFF7D8FE2046019987
:10325000FFF7A8FFF1E700BF0B7000F0427E054BBF
:10326000417F02EB4202D20113440B449B001868D9
:10327000C0B27047E000851010B51D4B82B003F15D
:10328000100153F8044B627F824203D08B42F8D185
:1032900002B010BD94F83130022BF9D12046FFF76F
:1032A000DDFF637D2075022BF2D194F82E3003F000
:1032B000FF02002BECD102A9606801F8012DFFF795
:1032C000FFFB237D63B194F82F304BB90028DFD189
:1032D0009DF80730002BDBD06068FFF791FBD7E744
:1032E000002384F82F306068FFF7AAFBD0E700BF07
:1032F0006856002090F8323053B902680123D36039
:103300001369D807FCD5536F43F001035367704727
:10331000012B00D0704703685A6C9107FCD401223E
:103320005A609A68D207FCD55A6D42F001025A657C
:10333000704700BF90F832306BB1012B00D070475E
:103340000268536C9B07FCD4536D022123F00103E8
:1033500053655160704703685A6F022122F00102E1
:103360005A67D960704700BF10B50446FFF7DCFA12
:10337000201D0021FFF7AAFA30B9014604F1080028
:10338000FFF7A4FA00B910BD004810BD0E7000F0A0
:1033900003689B6803F00200DA0748BF40F00100B1
:1033A000590748BF40F008001A0748BF40F0200006
:1033B000D90648BF40F040009A0648BF40F0800060
:1033C0005B0648BF40F40050704700BFF8B50446A4
:1033D00009200D46164601F005FD0746A26A03E0E6
:1033E00094F82E3023B977BB93889BB2002BF7D18A
:1033F00094F8323003BB2068076917F002074DD1FB
:103400000423C36003699907FCD5436F012243F08D
:103410000203436784F830203EB12E4415F8011BA7
:1034200002F038FDB5422068F8D103699906FCD551
:10343000002F37D00020F8BD012B07D0012384F8DE
:1034400030300020F8BDFFF789FBC7E720688768A8
:1034500017F0020718BF84F830300FD03EB12E4469
:1034600015F8011B02F02EFBB5422068F8D18368E5
:103470001A07DDD483681A07F9D5D9E7436C9A0790
:10348000FCD40423436083689B07FCD5436D012271
:1034900043F00203436584F83020DFE7012384F81A
:1034A0003030B9E794F8323063B1012BC2D12268D1
:1034B000536C9B07FCD4536D082123F00203536522
:1034C0005160B7E723685A6F082122F002025A6759
:1034D0000020D960F8BD00BF10B590F82E30012B48
:1034E000044607D094F82E30013BDBB284F82E302E
:1034F000002010BD90F83130022B03D06068FFF738
:103500009FFAEFE7FFF7AAFE0028F7D0EAE700BF2F
:10351000F8B5044617460D4601F05EFCA388E28824
:103520009A422BD9268884460FCD06EB8606B60034
:10353000083604EB060EA051CEF80410CEF8082091
:10354000CEF80C302868CEF8100023882288E08856
:10355000511C03EB830391FBF0F204EB830300FBAC
:10356000121292B208333B602280A38801339BB2CF
:103570006046A38001F034FC0020F8BD00233B60CE
:1035800001F02EFC0048F8BD0A7000F0002849D078
:103590002DE9F04182B00D46044601F01DFC012DDD
:1035A000074619D0022D3FD1636A9B889BB2002B3E
:1035B00046D0A068FFF764FA0023606A84F82C30D4
:1035C00083889BB2002B61D194F83130032B1CD03F
:1035D0002046FFF7AFFE18E0A36A9B889BB2002B42
:1035E0002ED06068FFF74CFA0023A06A84F82D30D3
:1035F00083889BB253BB94F832306BB92368186947
:103600008304F8D5023D012DD3D9384601F0E8FBFB
:10361000002002B0BDE8F081012BEED12046FFF77B
:10362000B7FEEDE728487047032DEBD1A36A9B88CE
:103630009BB2002BD5D1636A9B889BB2002BD0D163
:1036400001F0CEFB214802B0BDE8F08101A9FFF7EF
:10365000D5FC019960680831FFF75AFA1C4B019AB2
:103660009846136104E0FFF7E3FC019BDE683EB976
:10367000A36A18469B889BB201A9002BF3D1BAE735
:103680009B68002241462046B047F1E76946FFF7B4
:10369000B5FC0099A0680E4E0831FFF739FA009B7F
:1036A0001E61636A18469B889BB26946002B8BD0CB
:1036B000FFF7BEFC009BDD68002DF2D09B68002266
:1036C00031462046A847ECE7027000F0087000F091
:1036D000097000F02DE9F0410546406A848882B007
:1036E0000026A4B20096019617460E46984694B955
:1036F0000021C8F800103960316095F832302BB1E4
:10370000012B1ED0002002B0BDE8F0812B681869A3
:1037100002B0BDE8F0816946FFF770FC01A90446DC
:10372000A868FFF7F5F9009A002AE1D0002CDFD154
:10373000D2E9002301995B1A3B60C8F8001032609F
:10374000DBE72846FFF724FE02B0BDE8F08100BFAA
:1037500098B110B590F82E30044633B990F8313056
:10376000022B0CD06068FFF74BF994F82E30013330
:10377000DBB284F82E30002010BD03487047FFF7FD
:103780006DFD0028EED0F0E7027000F070B590F803
:103790003150022D82B003461AD0012D02D00020F4
:1037A00002B070BD037D044602AE63B3132306F876
:1037B000013DFFF7CDFF2A4631462046FFF706FEC2
:1037C00094F82E30002BEAD02046FFF785FEE6E77E
:1037D000827E857F0D49447D02EB42021201012069
:1037E0001144A8404CB1012C01D01B7D2BB101F13B
:1037F000C0610860002002B070BD01F18061086006
:10380000002002B070BD1123D1E700BF0CA0004022
:1038100070B582B0506A01A91446FFF7EFFB344B34
:10382000984235D094F83220019B002A33D1206889
:10383000016C11F4007106D09A602E4919614FF4A1
:103840000072826405E0026CD50541D400221A6141
:103850009A6001F0C1FA0199CD68064635B1D1E907
:1038600000208B680969C31A2046A84701A9606A2D
:10387000FFF7DEFB606A8588ADB2D5B101A9FFF71D
:10388000BDFB20460199FFF769FC304601F0A8FA1C
:10389000012002B070BD012AD8D12168CA6A12F095
:1038A00080021CD0134A1A610020802298604A636B
:1038B000CFE7012323752046FFF768FF94F83130E6
:1038C00084F82C50032BE0D02046FFF733FDDCE7D3
:1038D000094D99604FF480721D618264B9E7C86A2E
:1038E0004006B3D59A600448186140224A63B0E7A5
:1038F0000B7000F00D7000F00C7000F02DE9F0413D
:10390000894D06460F460FCD88B001AC0FC495E82F
:10391000070084E80700B6B1002F35D0342200211B
:10392000304625F00EFD814A814913783D463446E4
:1039300073B10023084650F8042B7AB194420DD09D
:103940000133042BF7D17B4E304608B0BDE8F0813F
:10395000C1E90033C1E90233012010702A6841F83F
:103960002340754B297C84F831109A424FF00001B6
:10397000226084F832100CD0704B9A4200F0A08183
:103980006F4B9A4200F0C7806E4E304608B0BDE8DB
:10399000F0816D4B6D4A23624FF44023C4E9032349
:1039A000D5E9062369686889B5F80CC0626200260B
:1039B0001680052756809680AA7B84F82C60A36227
:1039C0001E805E809E80EB7B0391ADF81400012188
:1039D0005F4884F82D6084F82F60ADF812C08DF830
:1039E00010208DF816308DF8117000F02DFD01219A
:1039F000584800F029FD0121206A00F025FD01A9A9
:103A000028688DF8046002F041F928686A7A836FAB
:103A1000297AD4F800C0DFF820E123F4F85323F02A
:103A20001F03134343EA01238367F4454FF0030365
:103A3000436700F095804148844500F04981404B40
:103A40009C45A1D1002900F04C824B1E0C2B40F26A
:103A50001483A1F10E03062B8CBFFF230523E3750E
:103A6000002A00F0DE82012A00F08983931E0A2BCF
:103A700040F20D83A2F10D03062B40F2B083A2F1B8
:103A80001403092B40F203831F2A14BFFF230023D2
:103A90002376002900F00683012900F09D838B1E08
:103AA0000B2B40F2FD820E2900F0A3830F2900F0BA
:103AB0009E83102900F07C83112900F0778312295E
:103AC00000F07283132900F06D83142914BFFF23C3
:103AD0000723E376002A00F00D82531E0B2B40F2E1
:103AE00009820D2A00F0B3830E2A00F058830F2AB2
:103AF00000F05283102A00F06883112A08D0122A9D
:103B000000F07283132A00F06C831F2A40F0F281C8
:103B100005232377A7E0104B104A23624FF460235C
:103B2000C4E903233CE700BF009F02007856002051
:103B300068560020027000F00000014000040140BF
:103B400000080140037000F00032040001000C0086
:103B50004041050000350A000052040001000E003B
:103B6000002900F0B481481E042816D9881F0428B3
:103B700040F2CE82A1F10B00B84240F21B83A1F1CA
:103B80001100062840F24A83A1F11803062B40F2E7
:103B900043831F2914BFFF263E46E675002A40F0E6
:103BA00047820129227600F02683022900F06D82E7
:103BB000032952D0042950D005294ED0062900F0FF
:103BC000A982072900F0B482082900F0B7820929E8
:103BD00000F0BA820A2900F0BD820B2900F012839E
:103BE0000C2900F013830D2900F00E830E2900F03C
:103BF00025830F2900F02083102900F08B821129E2
:103C000000F01C83122900F01783132900F0828230
:103C1000142900F08D82152900F09082162900F0F9
:103C20009382172900F09682182900F0038319293E
:103C300000F0FE821A2900F0F9821B2900F0F482BC
:103C40001C2900F0EF821D2900F0EA821E2900F0F5
:103C5000D9821F2914BFFF210721E176002A40F0F5
:103C60007B81012222776B7C6376AB7C6377EB7C74
:103C7000A3762B7DA37701212046FFF701FA0646A4
:103C800000287FF461AE01F0A7F82F7C032F804657
:103C900000F0E181022F00F00F8228684FF0FF331F
:103CA0008364042101F0EAFF2B684FF44062204650
:103CB000DA60FFF759FB0646404601F091F843E60B
:103CC000E14BE24A23624FF45023C4E9032367E641
:103CD000002900F01281481E042816D9881F0428E4
:103CE00040F21C82A1F10B00052840F24682A1F1AE
:103CF0001100062840F28E82A1F11803062B40F233
:103D000087821F2914BFFF260526E675002A00F0CA
:103D10009581012A00F09682931E022B40F2B98110
:103D2000531F042B40F2F081A2F10A03052B40F24D
:103D30002B82A2F11003062B40F22482A2F117037A
:103D4000072B40F27D821F2A14BFFF230023237616
:103D5000002900F0AF81012900F07782022954D0B8
:103D6000032952D0042950D005294ED0062900F04D
:103D7000D381072900F0DE81082900F0E9810929B3
:103D800000F0E4810A2900F06B820B2900F06682C2
:103D90000C2900F061820D2900F05C820E2900F0F0
:103DA0006F820F2900F06A82102900F0B581112975
:103DB00000F06682122900F06182132900F0AC81C4
:103DC000142900F0B781152900F0C281162900F0EE
:103DD000BD81172900F04482182900F04D8219296D
:103DE00000F048821A2900F043821B2900F03E822D
:103DF0001C2900F039821D2900F034821E2900F0B0
:103E00002D821F2914BFFF210721E176002A00F02F
:103E10000281012A7AD0022A00F03D81032A00F0B3
:103E20006081042A00F06281052A00F06A81062A76
:103E300000F07681072A00F07881082A00F08C8152
:103E4000092A00F08E810A2A00F08E810B2A00F0E8
:103E500091810C2A00F08B810D2A00F09A810E2AA4
:103E600000F094810F2A00F04C81102A00F091811B
:103E7000112A00F08B81122A00F04381132A00F0EE
:103E80004F81142A00F05181152A00F06581162A0D
:103E900000F06781172A00F09581182A00F0BB8096
:103EA000192A33D01A2A00F0F6801B2A00F0198153
:103EB0001C2A00F01B811D2A00F056811E2A00F0EA
:103EC00059811F2A14BFFF2100212177CBE6E1751C
:103ED000002A00F0A380012A1BD12176E17602227C
:103EE000C0E6E17512B1012A7FF4C0ADFF2323764D
:103EF0000523E376FF232377B5E6E175002A00F07A
:103F0000A780012A7FF408AF2176E176022121778C
:103F1000A9E6931E022B40F2B680531F042B40F2F9
:103F2000EA80A2F10A03052B40F20A81A2F11003F4
:103F3000062B40F26581A2F11703072B40F25E8148
:103F40001F2A14BFFF2300232376002900F0978047
:103F5000012940F0D280E176012AC0D0022A00F087
:103F60009080032A00F09A80042A00F0BD80052A80
:103F700000F0BF80062A00F0C980072A00F0D38035
:103F8000082A00F0D980092A00F0DC800A2A00F013
:103F9000E6800B2A00F010810C2A00F011810D2A16
:103FA00000F00C810E2A00F015810F2A00F0A1808C
:103FB000102A00F00381112A00F00C81122A00F06F
:103FC0009880132A00F0A280142A00F0AC80152AF1
:103FD00000F0B280162A00F0B580172A00F0F880B1
:103FE000182A3FF43EAE192A3FF479AF1A2A48D076
:103FF0001B2A53D01C2A77D01D2A00F0B0801E2A1D
:1040000000F0DA801F2A14BFFF2200222AE60229CC
:104010007FF4A6AEE1760121217724E62276E276CE
:104020001FE6FF23012923763FD1E37623771AE6A3
:10403000012A7FF46EAF0023237689E701292276D7
:10404000E5D1E17621770EE60042040001000D0083
:104050002276E276DFE728682B8CC367436E43F055
:1040600004034366436F4FF0FF3243F0300343676E
:104070008264052101F002FE16E6FF23EFE4E176FB
:104080006CE70322EEE500235EE7E176E9E5FF2336
:10409000FEE400235BE603212177E4E50422E1E569
:1040A000FF2316E50523E37617E5881E0B283FF668
:1040B000FAAC1EE7E176AEE67249607FFEF7A0FD3E
:1040C000FEF790FDA675267567752046FFF75EFB27
:1040D0002B7C28684FF0FF32032B82647FF4E1AD24
:1040E000C7E704212177BEE50522BBE5052121773D
:1040F000B9E50B22B6E5012326E702297FF458AD86
:10410000ABE50B212177AEE5012320E60C22A9E5E2
:10411000012642E50B21A0E50B2176E60126F4E518
:104120000C2121779FE50D229CE50D2121779AE551
:104130000C2192E50C2168E60E2293E50D218CE519
:10414000022301E70F228DE50E2186E50E215CE6B4
:104150000D215AE60F2180E50E21217783E5062205
:1041600080E50F2121777EE5062121777BE5082177
:10417000217778E50721217775E50226C5E5FF233C
:10418000237689E40323E2E50223E0E50A2121778F
:1041900069E50921217766E50323237763E5012398
:1041A000237760E5062394E4052392E4042390E456
:1041B00003238EE40226F0E4072253E5092251E5A9
:1041C00008224FE5002121774DE5042323774AE5B6
:1041D000002247E50A2245E5FF23E3767DE4052337
:1041E00056E4072323773EE5062323773BE50123A7
:1041F0006FE400236DE4E1760A4633E50523A3E688
:104200000323A1E6062128E5082126E5072124E568
:104210003E467AE51E4678E53E46BEE41E46BCE4D0
:1042200005211AE5042118E5032116E5022114E50C
:10423000012112E5002110E50A210EE509210CE516
:10424000052384E50023237685E5E176E1E5002377
:10425000237708E50821D8E50721D6E50621D4E52E
:104260000F21D2E50521D0E50421CEE50321CCE5DF
:104270000221CAE50121C8E50021C6E50A21C4E5FD
:104280000921C2E57932000070B586B050B329B378
:10429000541EB4F5006F21D2144E01911446054608
:1042A0006A46406A029401A90394CDE90436FFF7F7
:1042B0002FF9044698B995F82C3083B92846FFF7B2
:1042C00019F800992846FEF749FF95F83130032B7D
:1042D00005D02C752846FFF759FA00E0044C20461B
:1042E00006B070BD034C204606B070BD017000F0F2
:1042F000037000F0027000F070B586B028B301B30F
:10430000541EB4F5006F1CD2164E0191144605469A
:104310006A46806A029401A90394CDE90436FFF746
:10432000F7F8044670B995F82D305BB900F054FDEC
:10433000AB6A9B889BB206465BB9304600F050FDE5
:1043400000E0094C204606B070BD084C204606B07F
:1043500070BD00992846FEF725FF012385F830300F
:10436000EBE700BF017000F0037000F0027000F096
:1043700010B4134B134A5B680024C9B28C42234625
:1043800008D00133052B02F1080215D012F8084CB1
:104390008C42F6D152F80C4C8442F2D30A4A02EB1A
:1043A000C3035B791A0606495DF8044B4B6823F09A
:1043B000407313434B6070474FF04072F3E700BF08
:1043C00000000E40409F0200349F020038B5074CA9
:1043D00041F67133256C2364FEF742F80021FFF7A4
:1043E000C7FF0DB10023236438BD00BF00000E409D
:1043F0000C4A0D4BD2F89010516A21F0300141F077
:10440000100110B45162146BC0F3C3110331234087
:104410000F2928BF0F21034343EA017313635DF89B
:10442000044B704700400E4000F8FF0F38B5054CB4
:1044300041F67133256C2364FFF79AFF0DB1002319
:10444000236438BD00000E40C0F30323013B30B4A9
:10445000092B0CD8DFE803F00D110B0B152D190BF0
:104460002705164CC0F3043020448000016030BCA6
:104470007047C0F30430124CF6E7C0F30430114C1F
:10448000F2E7C0F30430104CEEE7104CC0F30430F8
:1044900010250F4BD3F84421D207E5D4D3F840219F
:1044A0002A42FBD1E0E7C0F304300A4C4FF48035D8
:1044B000EFE7C0F30430084C0125EAE7800AF21068
:1044C0000000F2100006F2108005F2104007F21012
:1044D00000400E408007F2100007F21000F00F00BD
:1044E0000138072847D8DFE800F0121D3346283E80
:1044F0004604264BD3F85C3103F03003202B40D028
:10450000302B40D0102B0CBF0720012070471F4BD1
:10451000D3F8943003F00703023B052B2FD81C4A35
:10452000D05C7047194BD3F8803003F00703013B90
:10453000042B22D8174AD05C7047144BD3F888302C
:1045400003F00703013B042B17D8134AD05C7047D4
:104550000E4BD3F8843003F00703013B042B0CD837
:104560000E4AD05C7047094B1B6F13F0010F14BF4C
:104570000920072070470020704701207047052060
:104580007047042070470820704700BF00400E406D
:104590001C9F0200249F0200249F02002C9F020007
:1045A00008B50146FFF79AFF1E4B99421FD01E4BDC
:1045B000994216D01D4B99420DD00138042808D8D5
:1045C000DFE800F003281B2C0300BDE80840FDF7DE
:1045D000B7BF002008BD164BD3F8800000F00700DD
:1045E000EBE7134BD3F8880000F00700E5E7104B2A
:1045F000D3F8840000F00700DFE7FDF75DFF0C4B08
:10460000D3F80031C3F300635A1C01239340B0FB7D
:10461000F3F008BDBDE80840FDF79ABFBDE80840CB
:10462000FDF792BF030020000500240002001E00D9
:1046300000400E4000F47810B0F5A01F08B500F05F
:1046400098801BD9B0F5001F33D054D9B0F5381F6E
:1046500034D066D9B0F5401F6BD0B0F5481F1AD1E1
:104660005B48FFF73BFF072842D0082800F0A580F1
:10467000042810D1BDE80840FDF730BFB0F5202F69
:1046800013D00AD9B0F5602F2DD0B0F5801F2FD0F0
:10469000B0F5402F1CD0002008BDB0F5003F7DD004
:1046A000B0F5802F6FD00028F5D1BDE80840FDF7A8
:1046B000DBBE4848BDE80840FFF772BF4648FFF739
:1046C0006FFF464BD3F82031C3F30113D84008BD28
:1046D000FDF7CAFE414BD3F81431C3F30423013371
:1046E000B0FBF3F008BD3E48FFF7F8FE072860D1A5
:1046F0003C4B186808BDB0F5D01F2DD0B0F5F01FA9
:1047000025D0B0F5B01FC6D13348FFF749FF334B72
:10471000D3F82021012302F00F029340B0FBF3F005
:1047200008BDB0F5101FB6D12F48BDE80840FFF70F
:1047300037BF2848FFF734FF284BD3F82831C3F39D
:1047400001231A1D01239340B0FBF3F008BD22485A
:10475000BDE80840FFF724BF1E48FFF721FF1F4BAD
:10476000D3F828210123C2F301129340B0FBF3F0E8
:1047700008BD1D48FFF714FF184BD3F8303103F084
:104780000303D84008BDFDF76FFE144BD3F80C317E
:10479000C3F308230133B0FBF3F008BDFDF764FE5B
:1047A0000E4BD3F80831C3F308230133B0FBF3F009
:1047B00008BD09287FF46FAF77E7FDF755FE074B7B
:1047C000D3F80031C3F3042303FB000008BD00BF8E
:1047D000B80032000300200002001E0000400E401E
:1047E00006000E0014110020050024000F4B5B6A28
:1047F00013F0300F06D0202914D0302902D009B18F
:104800000B4A01E04FF440020849D1F8903032EAF7
:104810000303FAD1530246BFD1F8A000C0F38020B1
:10482000012070474FF40002EEE700BF00400E4049
:10483000FFF3E17F2DE9F041074682B00E46904636
:10484000072819D8DFE800F0514C58474218181BC8
:10485000504B2B449B0000264F4A14661A68002ACE
:10486000FCD0B8F1000F07D04A4D0544AD002B68CD
:10487000002BFCD0022F5AD002B0BDE8F08101A875
:1048800001F0AEF99DF80530012B4BD94FF40043F0
:104890004FF480440E250F20002ED9D13E4901222D
:1048A0000B6602FA05F50B46D3F890202A42FBD19D
:1048B000B8F1000FE0D00123374A03FA00F0D2F834
:1048C00090300342FBD102B0BDE8F08120231024D8
:1048D00004250520E0E70124204602230025DBE72C
:1048E0008023402406250720D6E74FF400734FF4B9
:1048F000807408250920CFE7002946D026494B6A55
:1049000013F0300F38D1254BDB6B4B6ADB072FD50B
:104910004A6A234B22F0300242F010024A62042419
:10492000032099E79DF80430022BAFD8FEE7002E54
:10493000A2D0194A516A11F0010122D04FF48063CC
:104940002021C2F8A83038465166FFF74FFF124EBB
:10495000D6F89C70012200210220FFF76BFFC7F3FD
:104960000A00FFF745FD34662B68002BFCD083E777
:104970000B4B042403206FE7094B0424032000267B
:104980006AE73846FFF732FFE1E7082302250320F4
:1049900084E700BF8004F21000400E4000300E405B
:1049A0000812C8431128F8B50C460DD000F00F00CE
:1049B0000138072807D8DFE800F00C6A6C063F6171
:1049C000062904232B60F8BD042900F09B800529EB
:1049D00061D00025023C0A2CF5D801A353F824F03D
:1049E000174C0000DF4B0000E54B0000FF4B0000C0
:1049F000C7490000C7490000C7490000C749000077
:104A0000C7490000594B00001D4C00004C1E072CEC
:104A1000D9D801A353F824F0434B0000C749000044
:104A2000C7490000354B0000C7490000C7490000D6
:104A3000274B0000134B00007D4D013C0C2CC2D8CD
:104A400001A353F824F000BF014B0000F34A00001B
:104A5000E54A0000C7490000C7490000B94A000004
:104A6000C7490000C7490000C7490000C34900000A
:104A7000C7490000C7490000AB4A0000072900F001
:104A8000D28009299FD16B4B01221A67F8BD6A4D6C
:104A9000D3E76A4DD1E76A4A6A4B15689D4298D9B7
:104AA0000021284600F058FC94E701221146072017
:104AB000FFF7C0FE052385E7FDF7FEFC624B984239
:104AC00041D800200146614B5A4A1960D2F80031A2
:104AD0005F4923F0807303430120C2F800310323B0
:104AE00008606FE7012211461046FFF7A3FE01237D
:104AF00068E7012211460020FFF79CFE022361E7D0
:104B000000235FE7FDF7EAFC054600283FF461AFAC
:104B1000C6E73021474AD2F85C3123F030030B431B
:104B2000C2F85C31F8BD012211460420FFF782FE75
:104B30001021EFE7012211460220FFF77BFE202122
:104B4000E8E70021E6E7434B012198428CBF4FF094
:104B500000704FF08070B6E7032005240122114653
:104B6000FFF768FEFFF732FC1DB13B4A1368002BCC
:104B7000FCD1304B39485C67FFF75CFD324B984203
:104B80004ED9344B012498428CBF4FF000734FF044
:104B900080732E49274A0C60D2F8000120F0807003
:104BA0001843C2F80001FDF787FC2B4B1C68002C52
:104BB000FCD12B4B2B4E5968376C41F67133C1F346
:104BC00001413364FFF7D4FB07B13464002D7FF457
:104BD000FAAE28460121BDE8F84000F0BDBB012037
:104BE0000324BBE7194B134A01211960D2F80031A5
:104BF000022043F08073C2F800310446AEE7134B45
:104C00000C4A01241C60D2F8003143F08073C2F8D2
:104C100000310320A2E7002004249FE70724A1E736
:104C200000231C46B5E7034B00221A67F8BD00BFFE
:104C300088400E4000400E4080400E4084400E40B0
:104C40000C110020002D31010048E8014000C8434C
:104C50000816C8430090D003C800C64300250A00C8
:104C600000300E4000000E402DE9F041002A46D0F1
:104C70002F4B304A12685D6A002925F0405545F0F7
:104C8000005314BF4FF0805500251D43FDF726FC4F
:104C90000121064600F060FB274B1C68002CFCD16C
:104CA000244B264F5968D7F8408041F67133C1F341
:104CB00001413B643046FFF75BFBB8F1000F00D0C9
:104CC0003C641F4B9E4228D91E4B01249E428CBF40
:104CD0004FF000764FF080761B4B154A1C60D2F8DF
:104CE000003123F080733343C2F8003101221146B2
:104CF0000220FFF79FFD0E4B5D62BDE8F0810C4B7B
:104D00005D6A25F0405551B9FDF7E8FB012100F03F
:104D100023FB074B5D62BDE8F0810026DCE7FDF771
:104D2000DDFB012145F0805500F016FBDEE700BFFA
:104D300000400E4000300E40C800C64300000E4048
:104D40000048E8010090D0034000C84338B504464D
:104D50001120FFF7C3FB012200210220FFF76AFDAB
:104D6000174A257C536A1749207823F00103022D46
:104D700008BF43F0010353620860A388617AE588A5
:104D800041EAC321D162136B207AA17A03F07F63D9
:104D90000B43C11C43EAC5230F2943EAC01328BFB4
:104DA0000F2143EA01731363A37B657BE07B217BC7
:104DB0001B0143EA0533034343EA0143536338BD10
:104DC00000400E40A004C843EFF3108072B6704755
:104DD00000B962B6704700BFEFF3108072B670473B
:104DE000FFF7F6BFEFF31083DA0732D4214A430905
:104DF000C1B252F8233010B401F01F04E340DB07C6
:104E000023D5002827DB104490F800034209EFF374
:104E1000118313B1B2EB531F17D217494868C0F37F
:104E2000080098B11038C0B243B2002B1ADB03F16E
:104E3000604303F5614393F800034009824234BFA5
:104E4000002001205DF8044B704701205DF8044B01
:104E5000704701207047094B01F00F010B44187E89
:104E60004209D4E700F00F03043B0B44187E4009CD
:104E7000E4E700BF00E100E000ED00E0FCEC00E052
:104E8000024B9B6803EB80000164704700ED00E07B
:104E9000F0B4049F9DF8145053B1002465B1A142B1
:104EA00013D950F8246042F824600134A342F5D1AC
:104EB000074BF0BC9A607047A14252F8246002D9B7
:104EC000002EF2D1EDE7002EEFD142F82470ECE78E
:104ED00000ED00E00E29436816D8012210B48A4084
:104EE00047F2E004224223F01F0306D041F01001F4
:104EF000194341605DF8044B704740F61F7422422D
:104F0000F6D15DF8044B7047704700BF70B4056A76
:104F1000046A036A066ACE60102AC1E900548B60F5
:104F200007D1046A026A036A006AC861C1E90442DF
:104F30008B6170BC704700BF42EA032340F201124C
:104F400093425BD0B3F5817F14D340F201229342A8
:104F50004BD030D9B3F5407F24D040F20132934298
:104F60003ED12B4BD3F878311A0EC3F307430360BD
:104F70000A607047012B2AD00BD3B3F5807F2FD165
:104F8000234BD3F86C311A0EC3F3074303600A6056
:104F900070471F4BD3F86C31C3F30722DBB20360B9
:104FA0000A6070471A4BD3F870311A0EC3F30743E7
:104FB00003600A607047B3F5007F11D1144BD3F83A
:104FC0007031C3F30722DBB203600A607047104BF5
:104FD000D3F87431C3F30722DBB203600A60704771
:104FE0000022134603600A607047094BD3F87831FA
:104FF000C3F30722DBB203600A607047044BD3F8A7
:1050000074311A0EC3F3074303600A60704700BF90
:10501000B081E00F094A1368002BFCD1084B1968D6
:105020005A68C1F30121C2F3014291421A688CBF50
:1050300042F0100222F010021A607047C800C64306
:1050400000300E40044B1B69C3F30443082B02D10C
:10505000024B034A1A60704700400E400C110020BA
:10506000C0EA2101154B0228D3F8803122D0032851
:105070001ED0012814BFDBB2C3F307231B0323F4A4
:10508000704241B992B90E49CA6E22F4704213437C
:10509000CB66012070474AB90949D1F8E02022F4D3
:1050A00070421343C1F8E030012070470020704780
:1050B0001B0EE3E7C3F30743E0E700BFB081E00F57
:1050C00000300E4070B5274B274C1978274B284DE0
:1050D000284AC1F1020010218140216145F60E01EC
:1050E000D3F88041C3F88011286840F2551101407F
:1050F00004F0010419661368002BFCD11A4B1B68DD
:10510000D80617D5194AD2F84031D901FBD41A4E26
:105110001A4B31781B681361052916D01120FFF74F
:1051200041FC2B68DB070CD51CB1104B0022C3F8E7
:10513000802170BD104E31780529EFD12B68DB0737
:10514000F2D40A4B02221A66EEE70D4B094A1868A0
:105150001368002BFCD1044B5968C1F30141FFF7E0
:1051600065F9E8E78D56002000300E4000400E4003
:105170007C560020C800C643865600208856002072
:105180000C1100200C4A08B50C4BD2F890201A6084
:105190001120FFF7A3F90A4B0A4A18701368002B75
:1051A000FCD1094B09485B680349094AC3F3014331
:1051B00003700B69136008BD00400E407C56002050
:1051C00086560020C800C64300300E408D56002091
:1051D00088560020704700BF704700BF10B50446D6
:1051E000D0B9FFF717FF104A136943F004031361A6
:1051F000FFF7F0FF30BFFFF7EFFF84B90B4B1B68E1
:10520000DB0603D4BDE81040FDF756B9FFF71AFFDF
:10521000BDE81040FDF750B9FFF7B4FFE1E7BDE886
:105220001040FFF74FBF00BF00ED00E000300E4020
:1052300010B5044650BBFFF7EDFE184BD3F88021A4
:10524000D20748BF002245F60E004FF42071C3F884
:105250008001196648BFC3F88021114A136943F0E1
:1052600004031361FFF7B6FF30BFFFF7B5FF84B942
:105270000C4B1B68DB0603D4BDE81040FDF71CB9DE
:10528000FFF7E0FEBDE81040FDF716B9FFF77AFF23
:10529000D1E7BDE81040FFF715BF00BF00400E404A
:1052A00000ED00E000300E40FFF76CBFFFF70ABFD3
:1052B0000A4B9A69996922F4403242F4003241F46F
:1052C00040314AF6E85098609A6199619A61996113
:1052D0009A6199619A6199619A61704700300E40B4
:1052E0001A4B2DE9F041D3F8003104460E46FDF784
:1052F000BBF8174A07461368002BFCD1DFF854802F
:10530000D8F80430C3F301439C420ED0C4F1020329
:105310001025022C05FA03F50FD0C8F810501EB165
:105320000B4A1368002BFCD10CB1BDE8F08121467B
:105330003846BDE8F041FFF779B821463846FFF717
:1053400075F8C8F81050002EEFD0E9E700400E4085
:10535000C800C64300300E4010B5104B82B0D3F8E1
:10536000004158B10E4B1B7813B10E4B98420ED929
:10537000002002B0BDE81040FFF7B2BF0191FDF779
:1053800073F8C4F3042404FB00000199EAE7022047
:1053900002B0BDE81040FFF7A3BF00BF00400E40C1
:1053A0008C560020FF2C3101034B02781A7001212A
:1053B0000020FFF7D1BF00BF8C560020064942787D
:1053C0000B6823F4407343EA0223022A0B6004BFF4
:1053D000024B5B6A704700BF00300E4000400E4039
:1053E000244A4AF6E85310B4546B5363936FDB07B7
:1053F000FCD4136C13F0030322D01F4A0121834213
:1054000011601AD0032B02D1431E012B1FD9194A58
:10541000936FDB07FCD4136C164923F0030303439B
:1054200013648B6F13F00103FBD10030124A18BFD5
:105430000120012C106000D14B635DF8044B7047D4
:105440000028E1D10C4B5DF8044B18607047094A05
:105450004FF40023D362936FD907FCD4136C054932
:1054600023F0030343F0010313644B6A1A03FCD5D2
:10547000CDE700BF00300E40B40AC6432DE9F04F1F
:10548000A0F5E16489B00023B4F5966FCDE902334D
:10549000CDE90433CDE9063370D8514BB0F5E16F57
:1054A000D3F868318CBF4FF0010A4FF0000A69D180
:1054B000C3F30724DBB2079404934FF4167B4FF435
:1054C0009665DFF820910191D9F84C60C6F301761A
:1054D000044605A902A8334690465246FFF72CFD24
:1054E000D9F8E070C7F3012752463B4606A903A846
:1054F000FFF722FD049A0799651B8B1A05FB03F33E
:10550000B3FBFBF3D3182CBF01220022994235D301
:10551000002A33D1069903980A1A05FB02F2B2FB5E
:10552000FBF210EB020A2CBF01220022514525D3C9
:1055300022BB0299059A501A05FB00F5B5FBFBFB4F
:1055400011EB0B0B2CBF012100215A4516D3A9B931
:10555000B8F1000F0ED0D9F85C2022F4FE4222F000
:10556000020242EA0323B4F5E16F1E4A18BF43F07A
:105570000203D365019B7BB9012000E0002009B044
:10558000BDE8F08F1C0EC3F30743079404934FF458
:10559000966B4FF4E16594E730460021FFF762FD1A
:1055A0000028EBD038460121FFF75CFD0028E5D04C
:1055B0000C4A536ED34538BFD34623F4FF73BBF177
:1055C000E70F23F0010328BF4FF0E70BB4F5E16FBD
:1055D00018BF43F0010343EA4B035366CFE700BF14
:1055E000B081E00F00300E403A4B1A6FD96CC907FA
:1055F00030B402F007020BD5012A57D9132852D92B
:10560000143813288CBF4FF47F424FF4EE4207E06A
:10561000D96CCD073BD4012A51D9DB6C6FF0FF0266
:105620002C482D4DC36C2D4C23F47F431343C3648E
:10563000C16C2B88C26CC1F303210131283301EB0B
:10564000810503EB5303B3FBF5F3013B072B22F07A
:10565000EE6228BF072342F4801242EA0363B4F9E2
:105660000020C364002A10DB036D4C08283204EBD1
:10567000410102EB520223F07004B2FBF1F3072B5D
:1056800028BF072344EA0313036530BC7047DB6C73
:10569000DC0711D5012A0FD827288CBF4FF47F4291
:1056A0004FF4EE42BCE74FF44C52B9E7DA6CD10745
:1056B00005D5DB6CDB07EFD46FF0FF02B0E70928FC
:1056C000F1D90A3809288CBF4FF47F424FF4EE42DB
:1056D000A6E700BF00300E4082560020845600200E
:1056E000C2884A2AF8B50446B0F90C7005D9B2F55B
:1056F000FA7F53D24FF0805000E000203349344EFF
:10570000CB6C344D23F0405323F00103002FA8BF8E
:1057100043F001030343CB64D1F8E030288843F41D
:105720004073C1F8E030CB6E43F08073CB663368D2
:10573000002B3CD133680B6F23F007030B67FFF797
:1057400053FF254B2549A0882689B4F90C201A80DF
:1057500028800E80FFF748FFA37B002B31D0012B60
:1057600018D0012211466088FFF788FE054678B1FF
:10577000164A6078D36B43F48063D363FFF730FE3F
:10578000A37A174AA3F12003B3FA83F35B091360EA
:105790002846F8BD0D4B134A9A65E2E740F6C3135D
:1057A0009A428CBF4FF040504FF00050A6E733684C
:1057B0000B6F23F0070343F004030B67FFF714FF9D
:1057C000BFE7024B084A9A65CBE700BF00300E40A6
:1057D0008009C6438056002084560020825600204F
:1057E0009407C643372110B777402057054A064B28
:1057F00006491B68136F23F00703184310670888D6
:10580000FFF7F2BE00300E408009C64380560020EC
:105810002DE9F043072A01F003019DF81C609DF873
:10582000205027D8DFF87090DFF87080DFF870E044
:10583000DFF870C094000F27A040A740C9F800709F
:10584000C8F800000320A14000FA04F4CEF800409C
:10585000CCF800100E490F4C11448900012000FAC9
:1058600002F20B60C1F88060C4F82424C1F8005330
:10587000BDE8F083A2F10804A4000F27DFF8289008
:10588000DFF82880DFF828E0DFF828C0D4E700BF81
:105890008020851000A0004000A4004400A4004621
:1058A00008A4004408A4004604A4004404A400463C
:1058B0000CA400440CA40046F0B444004AB12718DC
:1058C000214D3F0101263D448E40A3B305F1C06543
:1058D0002E6025182D0105F18045072905F5204585
:1058E00019D88F006E684FF00F0C0CFA07FC26EAEF
:1058F0000C0602FA07F73E436E6052B90444124A9E
:1059000024010120224400FA01F1C3B902F18062AE
:105910001160F0BC704701F18046083EAF68B600E8
:105920004FF00F0C0CFA06FC27EA0C0702FA06F6F9
:105930003E43AE60E1E705F180652E60C9E702F104
:10594000C062F0BC116070470CA00040034B0344E0
:105950009B0081F001011960704700BFA001F110A8
:1059600038B5044601211148FEF76EFDB4F8013048
:1059700020780F4A0F495BBA9BB243EA00630020CC
:1059800013604FF0004510624FF0FF33D062506358
:105990004FF40070D5669366C1F88001E3785B012F
:1059A000DBB281F80933086038BD00BF00550A003A
:1059B00000200E4000E100E0F8B5CB7A8E7A0D7B36
:1059C000234F1B050C4643EA064300EB400607EB5A
:1059D000061643EA4553C0B20125497B22F0030273
:1059E00085402068C6F88000C6F88810C6F8843064
:1059F000C6F89820BD66FFF7EFF9FB6E227A2B43BD
:105A0000FB6612B17B6B2B437B63637A1BB1104A3D
:105A1000D36A2B43D3620E4B22791B6822B1D24347
:105A2000120262F47F42134062790AB143EA022310
:105A3000A2790AB123EA0203E27902B11343044ACC
:105A4000044913600D60D563BDE8F840FFF7C8B99D
:105A500000200E4028200E4410B5C0B2012484401E
:105A6000FFF7BAF9054A0649D36E23EA0403D36661
:105A70000C60BDE81040FFF7B3B900BF00200E4036
:105A800020200E44F8B5C3B201259D400446FFF71F
:105A9000A3F90B4B04EB44041F6E9E6A03EB041442
:105AA000D4F88C40FFF79CF9354206D1C4F30A10B4
:105AB00008B93D4200D10130F8BD0020F8BD00BF5B
:105AC00000200E408368DB06FCD5036CDA0702D4A5
:105AD000436C5B06FCD48162704700BF054A064BED
